:020000040800F2
:1000000000100020090C00084D0C0008C512000863
:10001000C7120008C9120008CB1200080000000037
:100020000000000000000000000000004D0C00086F
:100030004D0C0008000000004D0C00084D0C00089D
:100040004D0C00084D0C00084D0C00084D0C00082C
:100050004D0C00084D0C00084D0C00084D0C00081C
:100060004D0C0008911200084D0C00084D0C0008C2
:100070004D0C00084D0C00084D0C00084D0C0008FC
:100080004D0C00084D0C00084D0C0008000000004D
:100090000000000000000000000000004D0C0008FF
:1000A0004D0C00084D0C00084D0C00084D0C0008CC
:1000B000590700084D0C0008000000004D0C000816
:1000C0004D0C000800000000000000004D0C00086E
:1000D00000000000AD1600084D0C000800000000F4
:1000E0004D0C00084D0C00084D0C000800000000ED
:1000F0000000000000000000000000000000000000
:1001000000000000000000000000000000000000EF
:1001100000000000000000004D0C00084D0C00081D
:1001200000000000000000000000000000000000CF
:1001300000000000000000000000000000000000BF
:1001400000000000000000000000000000000000AF
:10015000000000000000000000000000000000009F
:10016000000000000000000000000000000000008F
:10017000000000000000000000000000000000007F
:10018000000000000000000000000000000000006F
:10019000000000000000000000000000000000005F
:1001A000000000000000000000000000000000004F
:1001B000000000000000000000000000000000003F
:1001C0000000000000000000000000005FF808F1DF
:1001D000044B05481B1A062B02D9044B03B11847E0
:1001E000704700BF5B04002058040020000000009E
:1001F00005490648091A891001EBD171491002D04E
:10020000034B03B1184770475804002058040020DE
:100210000000000010B5064C237843B9FFF7D8FF63
:10022000044B13B10448AFF300800123237010BDC9
:1002300058040020000000001824000808B5084BEE
:100240001BB108490848AFF300800848036813B998
:10025000BDE80840CCE7064B002BF9D09847F7E7FC
:10026000000000005C040020182400085404002052
:1002700000000000014608B5044800F0D5F940210F
:10028000024800F0D9F90028F9D008BD0038014033
:1002900070B50A20A0B0FFF7EDFF0D20FFF7EAFFD1
:1002A00004AA15464F4B03F108061446186859680E
:1002B000083303C4B3422246F7D118689B882060F4
:1002C000A3800024285D0134FFF7D4FF0D2CF9D161
:1002D000454800F071FA454A01AB10685168127A3E
:1002E00003C300241A7001AD285D0134FFF7C2FF7B
:1002F000082CF9D105243C4800F05EFA013CFAD103
:1003000016AA15463A4B03F1200614461868596898
:10031000083303C4B3422246F7D118681B79206022
:1003200023710024285D0134FFF7A4FF202CF9D1AC
:100330002D4800F041FA0CAA15462E4B03F1080691
:10034000144618685968083303C4B3422246F7D1EB
:10035000186899889B792060A180A3710024285D8A
:100360000134FFF787FF0E2CF9D11F4800F024FA63
:1003700008AA1546204B03F1080614461868596868
:10038000083303C4B3422246F7D118689B88206023
:10039000A3800024285D0134FFF76CFF0D2CF9D1F8
:1003A000114800F009FA10AA1546144B03F1100683
:1003B000144618685968083303C4B3422246F7D17B
:1003C00018689B882060A3800024285D0134FFF713
:1003D00051FF152CF9D1044820B0BDE8704000F061
:1003E000EBB900BF8823000840420F0096230008A5
:1003F0009F230008C4230008D3230008E12300083A
:1004000030B5012187B0052000F084FE01214FF4B2
:10041000804000F07FFE254C18238DF803304FF408
:100420000073ADF800306946032320468DF8023092
:1004300001F0BEF804231E4D8DF8033069464FF4D9
:1004400080632046ADF8003001F0B2F84FF4E1339C
:100450000024029302A90C232846ADF81230ADF80F
:100460000C40ADF80E40ADF81040ADF8144000F06F
:1004700063F82846012100F0B3F8012240F225512B
:10048000284600F0B9F8252301A88DF8043001238F
:100490008DF807308DF805408DF8064001F052F8D0
:1004A000FFF7F6FE01F0DAF807B030BD00080140B2
:1004B0000038014003880A8810B503F441544B8882
:1004C00013438A881343CA8813430A8913434A890A
:1004D00013438A891343CA89134323439BB203807E
:1004E000838B23F400631B041B0C83830B8A03821E
:1004F00010BD038819B19BB243F0400303E023F021
:1005000040031B041B0C03807047818170474FF62A
:10051000FF63994203880BBF23F480739BB21B04D3
:1005200043F4807308BF1B0C038070470389194292
:1005300014BF01200020704770B50E460446038AA0
:10054000CA889BB223F4405313430382828989886B
:10055000338992B20B43718922F4B0520B4322F0DB
:100560000C0213439BB28381838AB2899BB223F42A
:10057000407386B01343838201A800F085FD174ABB
:10058000039B049D3168944218BF1D4619226A439B
:10059000A389642613F4004F14BF4D008D00B2FBF5
:1005A000F5F5B5FBF6F0A28900010109120406FB7E
:1005B000115307D5D9003231B1FBF6F202F0070230
:1005C000104306E01A013232B2FBF6F303F00F03D8
:1005D000184380B2208106B070BD00BF00380140D2
:1005E000838919B19BB243F4005303E023F4005311
:1005F0001B041B0C83817047012310B5C1F3421407
:100600009C4201F01F0103FA01F101D10C3003E01B
:10061000022C0CBF1030143003680AB1194301E0FA
:1006200023EA0101016010BDC1F308018180704718
:100630008088C0F3080070470388194214BF012066
:1006400000207047C94389B201807047012310B56B
:10065000C1F3421401F01F029C4203FA02F201D1DD
:10066000838903E0022C0CBF038A838A9BB2134068
:10067000028892B243B10123090A03FA01F10A4246
:1006800014BF1846002010BD184610BD090A0123EA
:1006900003FA01F1C94389B2018070470D4908B5D9
:1006A00008230B8002238B700B482823CB7000F0AB
:1006B0007FFF0A4B4FF400721A6003F1C04303F549
:1006C0000C531A6842F008021A609A6842F0080255
:1006D0009A6008BD7A0800200008014000E100E0AF
:1006E0001FB50121052000F015FD482304A98DF850
:1006F0000330032321F8103D164800F059FF012173
:10070000084600F013FD01A800F0AEFB4FF4807323
:100710000024ADF8083001A910234FF08040ADF857
:100720000630ADF8044000F021FB234622460121AB
:100730004FF0804000F0B8FB012211464FF080409E
:1007400000F0B0FB01214FF0804000F096FB04B0B8
:1007500010BD00BF0008014008B501214FF08040E6
:1007600000F0D6FBA8B101214FF0804000F0DBFB88
:10077000084B1A7812B9084A0121117000221A7028
:100780004FF080431B88054A83F01003C3F3001326
:10079000137008BD000000207404002075040020C0
:1007A000014B1878704700BF76040020014B187089
:1007B000704700BF76040020B0F1807F1DD20F4B40
:1007C0001A6822F002021A601A6842F004021A60E3
:1007D00018225043002258609A601A6842F00102C1
:1007E0001A601968054AC903FBD5136823F48033DE
:1007F0001360136823F001031360704710E000E0FA
:100800000A23B0FBF3F210B503FB120492B28C7012
:10081000B2FBF3F403FB14224A706422B0FBF2F043
:10082000B0FBF3F203FB1200087010BD0A2310B5F1
:10083000B0FBF3F403FB14005070E0B2B0FBF3F430
:1008400003FB14001070B1FBF3F003FB1011D17027
:10085000C1B2B1FBF3F003FB1013937010BD10B5E0
:100860006424B0FBF4F400230B700A23B4FBF3F20E
:1008700003FB1244B0FBF3F24C70B2FBF3F403FB46
:10088000142403FB12038C70CB7010BD704708B5A5
:1008900000F074FB012000F093FB212000F058FCD5
:1008A0000028FAD000204FF4801100F08FFB0120C7
:1008B00000F096FB392000F04BFC0028FAD0012014
:1008C00000F0D0FC102000F0D7FC002000F0A0FBCE
:1008D000002000F0A7FB002000F0AEFB022000F09B
:1008E00085FB00F08DFB0828FBD108BD00EB8000E4
:1008F00001EB4000C0B270473C2359434FF46163A1
:1009000003FB00101044704707B50121082000F0D8
:1009100001FC0123ADF8043002238DF8063001A953
:10092000102304488DF8073000F042FE03B05DF854
:1009300004FB00BF000C01400128014602D103481E
:1009400000F088BE0121014800F086BE000C014085
:10095000314B82B01A6842F001021A6059682F4A7E
:100960000A405A601A6822F0847222F480321A60B7
:100970001A6822F480221A605A6822F4FE025A6031
:100980004FF41F029A600022DA62009201921A6804
:1009900042F480321A601A6802F400320192009A1E
:1009A00001320092019A1AB9009AB2F5A06FF2D101
:1009B0001A6812F4003218BF01220192019A012A2A
:1009C00005D0174B4FF000629A6002B070475A682A
:1009D0005A605A685A605A685A605A6822F47C12FF
:1009E0005A605A6842F498125A601A6842F080724B
:1009F0001A601968084A8901FBD5516821F0030182
:100A00005160516841F0020151605A6802F00C02D5
:100A1000082AFAD1D5E700BF001002400000FFF815
:100A200000ED00E010B5094C4FF4FA70E36823F4D0
:100A30000043E360FFF7C0FEE3684FF4FA7043F44D
:100A40000043E360BDE81040FFF7B6BE0008014078
:100A500038B505460B4C002814BF0A203C20E3683B
:100A600023F40043E360FFF7A7FEE368002D43F49F
:100A70000043E36014BF3C200A20BDE83840FFF784
:100A80009BBE00BF0008014038B50546002445FA6A
:100A900004F000F00100FFF7DBFF01340520FFF751
:100AA0008BFE082CF3D138BD10B50B4C0A20E3683F
:100AB00023F40043E360FFF77FFEE3680A2043F47A
:100AC0000043E360FFF778FEA4683220FFF774FE6E
:100AD000C4F3C03010BD00BF0008014038B5002588
:100AE0002C46FFF7E1FFA84001350444102DA4B2C5
:100AF000F7D1204601F06EFB01F030F80022054BE3
:100B000001F080F80022044B01F07CF801F08CFA2F
:100B100080B238BD0000B03F000024403F2806D01E
:100B20005F2806D01F280CBF082001207047042032
:100B3000704702207047000010B50446FFF772FFAF
:100B4000CC20FFF7A1FF4E20FFF79EFF4B20FFF7C1
:100B50009BFF4620FFF798FF2046FFF795FF2046B2
:100B6000FFF7DCFF024B93FBF0F0024B186010BD67
:100B7000C0980B000800002010B50446104B114926
:100B80009A69114842F004029A619A6942F001029E
:100B90009A614A6842F000724A609A690B4922F0F1
:100BA00001029A614FF400430B8003238B701423DE
:100BB000CB7000F0FDFC2046BDE81040FFF7BCBF45
:100BC0000010024000000140000801407E080020A3
:100BD00008B5FFF727FFCC20FFF756FF4420FFF7AB
:100BE00053FF084B1868FFF7E7FDFFF71BFFCC200A
:100BF000FFF74AFFBE20FFF747FFBDE80840FFF7B9
:100C00006DBF00BF08000020002103E00A4B5B58C5
:100C10004350043109480A4B42189A42F6D3094A14
:100C200002E0002342F8043B074B9A42F9D3FFF756
:100C30008FFE00F099FD7047182400080000002086
:100C4000580400205804002084080020FEE710B556
:100C5000044600F083F8204600F062F8BDE810403A
:100C600000F07CB808B5042000F078F94AF2A553EA
:100C700098424FF001014FF0C05027D000F056FAD3
:100C8000012000F059FC00F052F9012000F0DEF9DB
:100C9000412000F05DFA0028FAD04FF4807000F097
:100CA000E5F9012000F0EAF900F058F847F6FF7086
:100CB00000F044F800F052F84FF47A70FFF7C7FFE5
:100CC0004AF2A551042000F03BF907E000F02EFAAB
:100CD000012000F031FC012000F0D0F9BDE808400F
:100CE00000F04ABA034A93889BB243F01003938002
:100CF000704700BF00280040034A938823F0100388
:100D00001B041B0C9380704700280040034A938B00
:100D1000108B9BB243EA0040704700BF00280040A0
:100D200008B5FFF7DFFF044B020C80B21A839883EB
:100D3000BDE80840FFF7E0BF0028004008B5FFF716
:100D4000D1FF054BC0F3034280B21A819881BDE800
:100D50000840FFF7D1BF00BF00280040024A938837
:100D60009B06FCD5704700BF00280040224A03883C
:100D700090429BB212D002F5006290420ED0B0F1C8
:100D8000804F0BD0A2F59832904207D002F58062D6
:100D9000904203D002F58062904203D14A8823F04A
:100DA00070031343154A904208D002F580629042C6
:100DB0001FBF23F44073CA889BB2134303808B8800
:100DC00083850B8803850C4B98420FD003F5006395
:100DD00098420BD003F54063984207D003F5806337
:100DE000984203D003F58063984201D10B7A0386C1
:100DF00001238382704700BF002C01400010004097
:100E0000038C30B523F480531B041B0C0384038C28
:100E10008488828B0D8822F4E6421204120C23F49B
:100E2000005342EA05221B040D891B0C43EA0533DB
:100E30004D88A4B243EA05330A4D92B2A8429BB250
:100E400003D005F50065A84205D18D8924F48044BE
:100E500044EA8514A4B284808283CA88A0F8402022
:100E6000038430BD002C01404FF6FF7383800023C4
:100E70000380C380438003727047038819B19BB21B
:100E800043F0010303E023F001031B041B0C038068
:100E9000704783899BB20AB1194301E023EA01013B
:100EA00081817047FFF7F5BF70B50689048B058C0B
:100EB00024F44074ADB224F0030425F0220526F09A
:100EC000070624042A433604240C360C44F48074A8
:100ED00042EA0313314344F001049DB201810483CB
:100EE000058470BD038819B19BB243F0800303E011
:100EF00023F080031B041B0C03807047838B23F4B7
:100F000000631B041B0C43EA012189B281837047F3
:100F1000038A828911EA030092B203D0114214BFFE
:100F2000012000207047C94389B20182704708B58B
:100F3000012000F007F9BDE80840002000F002B9E8
:100F400082B000230193044B0193019B184401904C
:100F5000019B196002B07047006C004082B0002312
:100F60000193054B0193019B18440190019B188844
:100F700080B202B0704700BF006C00400E4B1A6890
:100F800042F001021A6059680C4A0A405A601A6815
:100F900022F0847222F480321A601A6822F48022CD
:100FA0001A605A6822F4FE025A604FF41F029A60D7
:100FB0000022DA62704700BF001002400000FFF814
:100FC000014B1860704700BF00004242034A53685B
:100FD00023F4741319430843506070470010024013
:100FE000014B1860704700BF60004242034A5368DB
:100FF00023F0030318435060704700BF0010024005
:10100000024B586800F00C00704700BF001002400F
:10101000034A536823F0F00318435060704700BF41
:1010200000100240034A536823F4E0631843506001
:10103000704700BF00100240034A536823F4605316
:1010400043EAC0005060704700100240064B002287
:1010500001281A701A7002D0042802D07047187044
:10106000704705221A70704720100240024A136A26
:1010700018431062704700BF00100240014B186017
:10108000704700BF3C0442421D4A10B5536803F04C
:101090000C03042B01D0082B01D01A4B10E053682D
:1010A0005168C3F38343C90341BFD16A154C01F0B2
:1010B0000F0101314CBFB4FBF1F1134902334B4333
:1010C00003605368114CC3F30313E15C0368CB4026
:1010D00043605168C1F30221615C23FA01F1816030
:1010E0005168C1F3C221615CCB40C36052680849BA
:1010F000C2F381328A5CB3FBF2F3036110BD00BF1F
:101100000010024000127A0000093D00100000208B
:101110000C000020044B9A6909B1104301E022EA57
:1011200000009861704700BF00100240044BDA696C
:1011300009B1104301E022EA0000D861704700BF06
:1011400000100240014B1860704700BF400442424B
:101150004209012A074B01D11B6803E0022A0CBF98
:101160001B6A5B6A00F01F0023FA00F000F0010028
:10117000704700BF00100240024A536A43F0807378
:10118000536270470010024070B5012188B00920F9
:10119000FFF7C0FF01210220FFF7C8FF0223ADF8CF
:1011A000003018238DF80330694603231B488DF85F
:1011B000023000F0FDF91A4B1A4A1B681A4CB3FBB7
:1011C000F2F300264FF47A72013B01A92046ADF8F4
:1011D0000820ADF80430ADF80A60ADF80660FFF7FE
:1011E000C5FD60230125ADF8103004A93223204647
:1011F000ADF81630ADF81250ADF81860FFF700FEEC
:1012000020460821FFF77AFE29462046FFF76AFEAE
:1012100029462046FFF731FE08B070BD000C0140A2
:101220000400002000366E010004004038B50C4D6B
:101230000024A3B2A5F840304FF47A700134FFF7D0
:10124000BBFAB4F57A7FF4D1054DA5F84040013CD6
:101250004FF47A70A4B2FFF7AFFA002CF5D138BD85
:1012600000040040034A136803F038031843106079
:10127000704700BF00200240044B1A6822F01002A1
:101280001A601A6810431860704700BF00200240BF
:1012900008B5FFF785FA012806D003D3022805D147
:1012A000032004E0012002E0022000E00020FFF71C
:1012B0007DFA034A536943F00803536108BD00BF38
:1012C00000040140FEE7FEE7FEE7FEE7014608B541
:1012D0000948FFF71AF980210748FFF727F9012885
:1012E000F9D04021054800F0B7F9BDE80840402199
:1012F000024800F0AFB900BF0030014000080140D3
:101300000F2810B5044611D840F60140FFF7DEFF64
:101310004FF41060FFF7DAFF40F60330FFF7D6FF17
:1013200044F42060BDE81040FFF7D0BF10BD08B501
:101330004FF48070FFF7CAFF4FF40070FFF7C6FF4D
:101340004FF44070FFF7C2FFBDE808404FF48060E3
:10135000FFF7BCBF2DE9F041804686B00121042093
:10136000FFF7D8FE01214FF48050FFF7D3FE182677
:1013700003230DEB0604244D8DF80230A02324F83E
:10138000183D2146284640278DF8036000F010F9EB
:101390001023214628468DF80330ADF8007000F088
:1013A00007F93946284600F055F94FF44043174CE9
:1013B000ADF804304FF40063ADF8083000234FF46B
:1013C0000072ADF80A30ADF80C30ADF8123001A95A
:1013D0004FF482732046ADF80E20ADF80630ADF81C
:1013E0001060FFF767F820460121FFF782F84FF4FD
:1013F00080712046FFF78BF84046FFF781FFFFF72B
:1014000096FF06B0BDE8F0810008014000300140C1
:1014100038B5054640F60140FFF758FF4FF410601D
:10142000FFF754FF40F60330124CFFF74FFF2B78C5
:1014300034F8130040F4807080B2FFF747FF6B78F8
:1014400034F8130040F4207080B2FFF73FFFAB7810
:1014500034F8130040F4407080B2FFF737FFEB78A8
:1014600034F81300BDE8384040F4806080B2FFF7E4
:101470002DBF00BFF823000838B5054640F60140EF
:10148000FFF724FF4FF41060FFF720FF40F6033012
:10149000FFF71CFF4FF48070FFF718FF0D4C2B78FF
:1014A00034F8130040F4007080B2FFF70FFF6B7840
:1014B00034F8130040F4607080B2FFF707FFAB7898
:1014C00034F81300BDE8384040F4806080B2FFF784
:1014D000FDBE00BFF823000838B5054640F60140C0
:1014E000FFF7F4FE4FF41060FFF7F0FE40F6033014
:1014F000FFF7ECFE4FF48070FFF7E8FE0D4C6B78C1
:1015000034F8130040F4007080B2FFF7DFFEAB78D0
:1015100034F8130040F4407080B2FFF7D7FEEB7848
:1015200034F81300BDE8384040F4806080B2FFF723
:10153000CDBE00BFF8230008014B1860704700BF04
:1015400020000E42C27810B503780AB3164A03F1A0
:101550006043D1684278C943C1F30221C1F1040458
:1015600002FA04F40F22CA40817803F561430A406D
:1015700022431201D2B283F80023037801225909D1
:1015800003F01F0302FA03F3084A42F8213010BDAA
:101590005A09012103F01F0301FA03F30349203222
:1015A00041F8223010BD00BF00ED00E000E100E096
:1015B000CA782DE9F041D40648BF8C780E8802F035
:1015C0000F0348BF234316F0FF0F1ED0016800240D
:1015D0004FF0010E4FF00F0C0EFA04F737EA060534
:1015E0000FD1A5000CFA05F821EA080103FA05F568
:1015F000282A41EA050101D1476102E0482A08BFD3
:1016000007610134082CE7D10160FF2E20D9416821
:1016100000244FF0010E4FF00F0C04F108050EFAF4
:1016200005F535EA06070FD1A7000CFA07F821EAFD
:10163000080103FA07F7282A41EA070101D14561A9
:1016400002E0482A08BF05610134082CE5D1416059
:10165000BDE8F08101617047416170470023194680
:10166000044AD1540133B3F5806FFAD1024B002202
:101670001A707047790400207804002007B5012112
:101680000420FFF747FD0423ADF8043002238DF852
:10169000063001A9102304488DF80730FFF788FFB2
:1016A00003B05DF804FB00BF0008014008B51D4B06
:1016B00040F225511C481B78FEF7C8FF30B31A488A
:1016C000FEF7B6FF194AC0B21070137811463A2BD4
:1016D000174B02D101225A7018E0587870B1107877
:1016E0000D280BD0187848B959780131C9B2597012
:1016F00059781278C9B2D2B25A5407E05B782BB14C
:101700000B780D2B02BF0A4B01221A7040F22551B3
:101710000548FEF7BBFFBDE8084040F225510248EE
:10172000FEF790BF780400200038014077040020C5
:101730007904002008B5FFF7AAF85F20FFF71CFA2C
:101740000020FFF707FEFEF75BFEFFF78BFAFEF7C0
:10175000A5FFFEF7C5FFFFF717FDFFF7D5F8BDE8BA
:101760000840FFF78BBF00007FB5FFF7E3FF0820BD
:10177000FFF7C6FD4AF6D400FFF769FA424C23781A
:10178000012B2AD1A378DBB2492B21D04C2B17D0C7
:10179000432B20D1E0782179FFF7A8F8054660793E
:1017A000A179FFF7A3F80646E079217AFFF79EF8C2
:1017B000314602462846FFF79FF8FFF748FA0AE04D
:1017C0002079C0B2012818BF0020FFF7B5F802E069
:1017D000E078FFF795FDFFF741FF2C48FEF7ECFF9F
:1017E00042F21070FEF7E8FFFFF790FA0546FEF7A9
:1017F000D7FF032845D801A353F820F00D1800089F
:101800003D180008511800087F1700084FF4616365
:10181000B5FBF3F203FB125318203C21B3FBF1F1AB
:10182000B2FBF0F300FB1320C9B202AAC0B2FEF76C
:10183000FDFF02A8FFF7ECFD32221EE0FFF7C8F91A
:1018400001A9FEF7DDFF01A8FFF716FEC82214E08C
:101850004FF08045A88C03A980B2FFF700F803A8D9
:10186000FFF73AFEA88C0025294680B2FFF70EF854
:101870002846FFF745FD4FF4C872054BA3F84020FA
:101880007DE7FFF7D3FC7AE77904002040420F00A0
:101890000004004081F0004102E000BF83F00043FB
:1018A00030B54FEA41044FEA430594EA050F08BFFB
:1018B00090EA020F1FBF54EA000C55EA020C7FEABF
:1018C000645C7FEA655C00F0E2804FEA5454D4EB3C
:1018D0005555B8BF6D420CDD2C4480EA020281EA06
:1018E000030382EA000083EA010180EA020281EA3E
:1018F0000303362D88BF30BD11F0004F4FEA013190
:101900004FF4801C4CEA113102D0404261EB41019E
:1019100013F0004F4FEA03334CEA133302D0524224
:1019200063EB430394EA050F00F0A780A4F10104E0
:10193000D5F1200E0DDB02FA0EFC22FA05F280181A
:1019400041F1000103FA0EF2801843FA05F3594100
:101950000EE0A5F120050EF1200E012A03FA0EFC7F
:1019600028BF4CF0020C43FA05F3C01851EBE371A9
:1019700001F0004507D54FF0000EDCF1000C7EEBC6
:1019800000006EEB0101B1F5801F1BD3B1F5001F04
:101990000CD349085FEA30004FEA3C0C04F1010423
:1019A0004FEA445212F5800F80F09A80BCF1004F4C
:1019B00008BF5FEA500C50F1000041EB045141EACE
:1019C000050130BD5FEA4C0C404141EB010111F4CF
:1019D000801FA4F10104E9D191F0000F04BF01467A
:1019E0000020B1FA81F308BF2033A3F10B03B3F158
:1019F00020020CDA0C3208DD02F1140CC2F10C02E8
:101A000001FA0CF021FA02F10CE002F11402D8BF45
:101A1000C2F1200C01FA02F120FA0CFCDCBF41EA11
:101A20000C019040E41AA2BF01EB0451294330BDE0
:101A30006FEA04041F3C1CDA0C340EDC04F11404BD
:101A4000C4F1200220FA04F001FA02F340EA030094
:101A500021FA04F345EA030130BDC4F10C04C4F1DA
:101A6000200220FA02F001FA04F340EA03002946BA
:101A700030BD21FA04F0294630BD94F0000F83F404
:101A8000801306BF81F480110134013D4EE77FEAE7
:101A9000645C18BF7FEA655C29D094EA050F08BF33
:101AA00090EA020F05D054EA000C04BF1946104614
:101AB00030BD91EA030F1EBF0021002030BD5FEA58
:101AC000545C05D14000494128BF41F0004130BD80
:101AD00014F580043CBF01F5801130BD01F00045D4
:101AE00045F0FE4141F470014FF0000030BD7FEA47
:101AF000645C1ABF194610467FEA655C1CBF0B4642
:101B0000024650EA013406BF52EA033591EA030F58
:101B100041F4002130BD00BF90F0000F04BF002150
:101B2000704730B54FF4806404F132044FF0000583
:101B30004FF0000150E700BF90F0000F04BF0021FC
:101B4000704730B54FF4806404F1320410F0004562
:101B500048BF40424FF000013EE700BF42004FEA5D
:101B6000E2014FEA31014FEA02701FBF12F07F43DA
:101B700093F07F4F81F06051704792F0000F14BFD7
:101B800093F07F4F704730B54FF4607401F000451B
:101B900021F0004120E700BF50EA010208BF704772
:101BA00030B54FF000050AE050EA010208BF704767
:101BB00030B511F0004502D5404261EB41014FF4D0
:101BC000806404F132045FEA915C3FF4DCAE4FF0D4
:101BD00003025FEADC0C18BF03325FEADC0C18BFBB
:101BE000033202EBDC02C2F1200300FA03FC20FA0C
:101BF00002F001FA03FE40EA0E0021FA02F1144459
:101C0000C1E600BF70B54FF0FF0C4CF4E06C1CEA6D
:101C100011541DBF1CEA135594EA0C0F95EA0C0FE2
:101C200000F0DEF82C4481EA030621EA4C5123EA55
:101C30004C5350EA013518BF52EA033541F4801184
:101C400043F4801338D0A0FB02CE4FF00005E1FB37
:101C500002E506F00042E0FB03E54FF00006E1FB81
:101C600003569CF0000F18BF4EF0010EA4F1FF04C4
:101C7000B6F5007F64F5407404D25FEA4E0E6D4104
:101C800046EB060642EAC62141EA55514FEAC52015
:101C900040EA5E504FEACE2EB4F1FD0C88BFBCF591
:101CA000E06F1ED8BEF1004F08BF5FEA500E50F142
:101CB000000041EB045170BD06F0004646EA010108
:101CC00040EA020081EA0301B4EB5C04C2BFD4EB3A
:101CD0000C0541EA045170BD41F480114FF0000E33
:101CE000013C00F3AB8014F1360FDEBF002001F0A1
:101CF000004170BDC4F10004203C35DA0C341BDC1B
:101D000004F11404C4F1200500FA05F320FA04F0EC
:101D100001FA05F240EA020001F0004221F0004120
:101D200010EBD37021FA04F642EB06015EEA430E93
:101D300008BF20EAD37070BDC4F10C04C4F12005C3
:101D400000FA04F320FA05F001FA04F240EA020076
:101D500001F0004110EBD37041F100015EEA430E47
:101D600008BF20EAD37070BDC4F1200500FA05F267
:101D70004EEA020E20FA04F301FA05F243EA0203E6
:101D800021FA04F001F0004121FA04F220EA0200F5
:101D900000EBD3705EEA430E08BF20EAD37070BD3B
:101DA00094F0000F0FD101F00046400041EB01011B
:101DB00011F4801F08BF013CF7D041EA060195F0FD
:101DC000000F18BF704703F00046520043EB0303B7
:101DD00013F4801F08BF013DF7D043EA06037047A4
:101DE00094EA0C0F0CEA135518BF95EA0C0F0CD0AF
:101DF00050EA410618BF52EA4306D1D181EA0301F5
:101E000001F000414FF0000070BD50EA410606BFEE
:101E10001046194652EA430619D094EA0C0F02D133
:101E200050EA013613D195EA0C0F05D152EA033678
:101E30001CBF104619460AD181EA030101F0004196
:101E400041F0FE4141F470014FF0000070BD41F0DF
:101E5000FE4141F4780170BD70B54FF0FF0C4CF4B9
:101E6000E06C1CEA11541DBF1CEA135594EA0C0FD8
:101E700095EA0C0F00F0A7F8A4EB050481EA030E25
:101E800052EA03354FEA013100F088804FEA03330C
:101E90004FF0805545EA131343EA12634FEA0222DA
:101EA00045EA111545EA10654FEA00260EF000419B
:101EB0009D4208BF964244F1FD0404F5407402D2ED
:101EC0005B084FEA3202B61A65EB03055B084FEA7E
:101ED00032024FF480104FF4002CB6EB020E75EB7B
:101EE000030E22BFB61A754640EA0C005B084FEAA3
:101EF0003202B6EB020E75EB030E22BFB61A754620
:101F000040EA5C005B084FEA3202B6EB020E75EB6A
:101F1000030E22BFB61A754640EA9C005B084FEAE2
:101F20003202B6EB020E75EB030E22BFB61A7546EF
:101F300040EADC0055EA060E18D04FEA051545EADE
:101F400016754FEA06164FEAC30343EA52734FEA87
:101F5000C2025FEA1C1CC0D111F4801F0BD141EA00
:101F600000014FF000004FF0004CB6E711F4801F65
:101F700004BF01430020B4F1FD0C88BFBCF5E06F45
:101F80003FF6AFAEB5EB030C04BFB6EB020C5FEA55
:101F9000500C50F1000041EB045170BD0EF0004EAA
:101FA0004EEA113114EB5C04C2BFD4EB0C0541EADC
:101FB000045170BD41F480114FF0000E013C90E6D9
:101FC00045EA060E8DE60CEA135594EA0C0F08BF9D
:101FD00095EA0C0F3FF43BAF94EA0C0F0AD150EA9C
:101FE00001347FF434AF95EA0C0F7FF425AF10462F
:101FF00019462CE795EA0C0F06D152EA03353FF457
:10200000FDAE1046194622E750EA410618BF52EAD3
:1020100043067FF4C5AE50EA41047FF40DAF52EAA7
:1020200043057FF4EBAE12E74A0011D212F500121D
:1020300011D20DD56FF47873B3EB62520ED44FEA20
:10204000C12343F0004343EA505323FA02F07047A0
:102050004FF00000704750EA013002D14FF0FF30DE
:1020600070474FF00000704780F0004002E000BF72
:1020700081F0004142001FBF5FEA410392EA030F73
:102080007FEA226C7FEA236C6AD04FEA1262D2EBBD
:102090001363C1BFD218414048404140B8BF5B42C2
:1020A000192B88BF704710F0004F40F4000020F05B
:1020B0007F4018BF404211F0004F41F4000121F071
:1020C0007F4118BF494292EA030F3FD0A2F10102BB
:1020D00041FA03FC10EB0C00C3F1200301FA03F1F9
:1020E00000F0004302D5494260EB4000B0F5000F1C
:1020F00013D3B0F1807F06D340084FEA310102F1DB
:102100000102FE2A51D2B1F1004F40EBC25008BF8C
:1021100020F0010040EA03007047490040EB000056
:1021200010F4000FA2F10102EDD1B0FA80FCACF185
:10213000080CB2EB0C0200FA0CF0AABF00EBC25084
:1021400052421843BCBFD0401843704792F0000F72
:1021500081F4000106BF80F400000132013BB5E7C5
:102160004FEA41037FEA226C18BF7FEA236C21D03B
:1021700092EA030F04D092F0000F08BF08467047A0
:1021800090EA010F1CBF0020704712F07F4F04D16E
:10219000400028BF40F00040704712F100723CBF81
:1021A00000F50000704700F0004343F0FE4040F4AB
:1021B000000070477FEA226216BF08467FEA236369
:1021C0000146420206BF5FEA412390EA010F40F454
:1021D000800070474FF0000304E000BF10F00043A0
:1021E00048BF40425FEA000C08BF704743F0964387
:1021F00001464FF000001CE050EA010208BF7047A2
:102200004FF000030AE000BF50EA010208BF704728
:1022100011F0004302D5404261EB41015FEA010C3D
:1022200002BF84460146002043F0B64308BFA3F135
:102230008053A3F50003BCFA8CF2083AA3EBC25317
:1022400010DB01FA02FC634400FA02FCC2F1200236
:10225000BCF1004F20FA02F243EB020008BF20F06D
:102260000100704702F1200201FA02FCC2F12002D3
:1022700050EA4C0021FA02F243EB020008BF20EAC8
:10228000DC707047024B13B1024800F005B870478C
:1022900000000000A5220008002301461A46184647
:1022A00000F014B838B5074D074C2C1BA41005D00E
:1022B000013C55F8043D9847002CF9D1BDE8384061
:1022C00000F05CB854040020500400202DE9F047D1
:1022D000254C064625688846D5F8484192469946D9
:1022E000C4B360681F2817DC411C76B104EB80037F
:1022F000C3F888A0D4F88851012282401543022EE9
:10230000C4F88851C3F808911ED0831C6160002076
:1023100044F82380BDE8F087144B03B34FF4C87032
:10232000AFF300800446D0B1D5F84831002784E8E7
:1023300088003846C5F848410121C4F88871C4F8BE
:102340008C71002EE1D0D1E7D4F88C311A43C4F857
:102350008C21DAE705F5A674C5F84841C1E74FF0CE
:10236000FF30BDE8F08700BF142400080000000023
:10237000F8B500BFF8BC08BC9E467047F8B500BF72
:10238000F8BC08BC9E46704741542B43574D4F4400
:10239000453D320A0D0041542B5253540A0D004161
:1023A000542B43575341503D224741544557454CC8
:1023B0004C222C223132333435363738222C352C0E
:1023C000300A0D0041542B4349504D4F44453D3098
:1023D0000A0D0041542B4349504D55583D310A0DCB
:1023E0000041542B4349505345525645523D312CE0
:1023F000383838380A0D00007E0030006D00790052
:1024000033005B005F0070007F007B000000000075
:08241000430000002000002041
:102418000100000000366E01C0980B000204060897
:102428000000000001020304010203040607080972
:10243800000000000C03002074030020DC030020CF
:102448000000000000000000000000000000000084
:102458000000000000000000000000000000000074
:102468000000000010240008000000000000000028
:102478000000000000000000000000000000000054
:102488000000000000000000000000000000000044
:102498000000000000000000000000000000000034
:1024A8000000000000000000000000000000000024
:1024B8000000000000000000000000000000000014
:1024C8000000000000000000000000000000000004
:1024D80000000000000000000100000000000000F3
:1024E8000E33CDAB34126DE6ECDE05000B000000B8
:1024F80000000000000000000000000000000000D4
:1025080000000000000000000000000000000000C3
:1025180000000000000000000000000000000000B3
:1025280000000000000000000000000000000000A3
:102858000000000000000000852200083D0200087A
:08286800150200080000000049
:0400000508000000EF
:00000001FF
